S02B0000544849524450415254595F4C5749505F5241575F42415349435F485454505F4558414D504C45322EBA
S214400000004D4020E50D4000E10D4000E10D400070
S214400010E10D4000E10D4000E10D40000000000011
S214400020000000000000000000000000E10D40005D
S214400030E10D400000000000E10D4000E10D4000F1
S214400040E10D4000E10D4000E10D4000E10D4000B3
S214400050E10D4000E10D4000E10D4000E10D4000A3
S214400060E10D400000000000150A4000290A40004B
S2144000703D0A4000E10D4000E10D4000E10D40002A
S214400080510A4000650A4000E10D4000E10D400085
S214400090E10D4000E10D4000E10D4000657A400072
S2144000A0E10D4000E10D4000E10D4000E10D400053
S2144000B0E10D4000E10D4000E10D4000E10D400043
S2144000C0E10D4000E10D4000E10D4000E10D400033
S2144000D000000000E10D4000000000009D7340005D
S2144000E0E10D4000E10D4000E10D4000E10D400013
S2144000F0E10D4000E10D4000E10D4000E10D400003
S214400100E10D4000E10D4000E10D4000E10D4000F2
S214400110E10D40000000000000000000000000006C
S214400120E10D4000E10D4000E10D4000E10D4000D2
S214400130E10D400000000000E10D4000E10D4000F0
S21440014010B5054C237833B9044B13B10448AFF3CC
S21440015000800123237010BDF808402000000000F6
S214400160D8ED4000084B10B51BB108490848AFF31E
S21440017000800848036803B910BD074B002BFBD02E
S214400180BDE81040184700BF00000000FC084020B3
S214400190D8ED4000D8ED40000000000010B51048F3
S2144001A0104B98473E2100200F4B98470F4CA047D6
S2144001B00028FCD00E4B98470E4A0F4B9A620F4CC5
S2144001C0A0470028FCD002200D4B984710200D4B2E
S2144001D098470D4B98470D48024B984710BD00BFB7
S2144001E000A3E111D10F40001D0B4000710B4000F1
S2144001F0810B4000013F182000060E40910B400046
S214400200790A4000B50A4000C10E400080D1F0088F
S21440021090B92DE9F0410C469046002A0FDD8F1824
S214400220084E094D306821462B6898470134A7424E
S214400230F8D14046BDE8F0814FF0FF3070470020CF
S214400240BDE8F08130384020283840200138022868
S21440025015D82DE9F0410E4614469AB10D46DFF802
S21440026038800C4FD8F8000015F8011B3B689847BB
S21440027000280ADBA81B013CF4D1BDE8F0814FF012
S214400280FF3070470020BDE8F0814FF0FF30BDE8FA
S214400290F08100BF2C3840203038402010B54FF455
S2144002A000423B4B5A60A3F545633A4A5A60A2F572
S2144002B080725A60BFF34F8FBFF36F8F364BD3F8C1
S2144002C0902222F00102C3F89022D3F8942222F022
S2144002D00102C3F89422BFF34F8FBFF36F8F0A20FB
S2144002E02E4CA0470B20A0470C20A0471020A0472C
S2144002F01120A0472A4B4FF480721A61C3F8A02001
S2144003001A63A3F580634FF400625A61C3F8A020D5
S2144003105A66C3F890205A651A62C3F88420196F4B
S21440032021F400611967596F21F400615967C3F8D9
S214400330C020C3F8D420C3F8B0204FF400121A6689
S214400340C3F890205A655A62C3F88020196F21F48A
S21440035000111967596F21F4001159675A60114A04
S214400360D2F8143143F01003C2F814310E4B102269
S2144003701A66C3F890205A655A62C3F88020196FEF
S21440038011431967596F114359675A6010BD00BF32
S21440039050180E400C08005A00ED00E0A10B40003B
S2144003A000120E400080084000100E40F0B583B0AA
S2144003B004460F461646036843F01003036001AB3D
S2144003C00122364DA84720B1226822F01002226052
S2144003D061E0019B13F0040F05D1236823F010035E
S2144003E02360FF2057E02EB9236823F010032360D4
S2144003F0002050E06B461E2239462046274DA8472F
S21440040020B1226822F01002226044E0019B13F4DF
S214400410805F06D0009A12F0050F0CBF0122002222
S21440042000E0012213F4005F03D0009911F0020FA0
S21440043028D113F4006F03D0009B13F0010F08D1AE
S2144004404AB1012300E00023626842F00102626084
S21440045008E0002302E0012300E00023626822F067
S2144004600102626023B1636843F00203636003E005
S214400470636823F002036360236823F0100323605D
S214400480002008E013F4006FDDD0009B13F0010F4E
S214400490E3D10023D8E703B0F0BD00BFF507400026
S2144004A02DE9F04182B004460D46036843F0100340
S2144004B0036001AB0022594EB04720B1226822F0BB
S2144004C010022260A6E0019B23F4B04343F480630D
S2144004D00193002229462046514EB04720B122685B
S2144004E022F01002226095E040F2E11304222946F1
S2144004F020464B4EB04720B1226822F010022260C0
S21440050088E001AB002229462046444EB04720B141
S214400510226822F0100222607CE0019B43F44453A0
S21440052001930022294620463D4EB04720B122681E
S21440053022F0100222606DE0019B23F4806343F4B6
S21440054000730193002229462046354EB04720B11D
S214400550226822F0100222605CE0324E4FF0010822
S2144005602E4F01AB424629462046B84720B1226866
S21440057022F0100222604DE0019B13F0200F07D1BD
S214400580013EEED1236823F010032360012041E0B2
S2144005906B46052229462046204DA84720B12268B2
S2144005A022F01002226035E0009B13F4807F09D1D0
S2144005B013F0400F0CD113F0800F08BF002309D072
S2144005C0002300E00123626842F00102626005E019
S2144005D00123FFE7626822F00102626023B163688C
S2144005E043F00203636003E0636823F00203636042
S2144005F0E36823F00103E3600B4B1A6842F00802FD
S2144006001A601A6842F004021A60236823F0100346
S2144006102360002002B0BDE8F08100BFF50740002F
S2144006205508400040420F00000005402DE9F043C9
S21440063083B005468946036843F0100303604FF4D1
S214400640004302AE46F8043D00220E4CA0470A2462
S2144006504FF000080C4F3346424649462846B847B6
S214400660013C019B13F4004F01D0002CF3D12B68C2
S21440067023F010032B60B4FA84F0400903B0BDE8C1
S214400680F08300BF55084000F50740002DE9F043D1
S21440069085B00646884614460125009500232A461E
S2144006A04FF480614448454FB8472A464FF480414E
S2144006B04348444B984740F2FF324FF0006142486F
S2144006C0424B984741464248424B9847424B9C4291
S2144006D06DD8424B9C420FD8414B9C420FD8414B61
S2144006E09C420FD8404B9C420FD8404B9C428CBFFC
S2144006F04FF4802300230AE04FF4A01307E04FF4A2
S214400700801304E04FF4402301E04FF40023726866
S21440071022F4E012726074681C43746004AB0022DA
S21440072043F8042D326842F01002326002224146FD
S21440073030462F4CA047039B222B31D044462025E1
S2144007404FF002092A4F013404F01F0403AB4A4617
S21440075021463046B847039B222B04D06B1E13F02D
S214400760FF05F0D110E0336823F01003336003AB8D
S2144007700122214630461E4DA847A04517D0414687
S2144007803046144B984712E0336823F0100333602A
S2144007900DE003AB012241463046154CA04706E02B
S2144007A0336823F010033360B8F1FF0FF1D1002017
S2144007B005B0BDE8F08300BF00120E40950940002A
S2144007C0000E0E405D09400000140E40C90840006F
S2144007D0000005402D064000001C4E0E00688909AA
S2144007E0000E270700B4C404005A6202002D3101EF
S2144007F0F507400010B483B0846814F0040FFBD0B3
S214400800920402F4F802114C1443C90501F07861D1
S21440081021434163002201920D4905E0019A0132CD
S2144008200192019A8A420CD8826812F0040FF5D0E1
S214400830826812F0040FFBD0426B92B21A6000201E
S21440084000E0012003B05DF8044B704700000260F2
S2144008503F420F0010B483B0846814F0040FFBD0FE
S214400860920402F4F8020F4C1443C90501F0786173
S21440087021439BB219434163002301930A4A05E092
S214400880019B01330193019B934205D8836813F083
S214400890040FF5D0002000E0012003B05DF8044BC3
S2144008A0704700BF000002503F420F0021F0006139
S2144008B0B1F1405F01D1836B00E0C36B134214BFBC
S2144008C001200020704700BF4264B1F1C05F2FD0C6
S2144008D007D8B1F1006F14D0B1F1805F1ED039B99E
S2144008E07047B1F1205F37D004D8B1F1005F29D00E
S2144008F042607047B1F1405F2ED0B1F1605F2BD0BF
S214400900F6E710B4046F016FD343214019400167E6
S214400910446F416F21400B4043671AE0036F134317
S2144009200367416F436F0B4023EA02034367DFE7E9
S214400930016F036F0B4023EA02030367436F1343C1
S2144009404367D5E7036F13430367436F1343436718
S214400950CEE742605DF8044B704700BF416412F03A
S214400960010F01D0416600E0016612F00A0F01D087
S214400970016200E0416212F0020F02D0C0F880101F
S21440098004E012F0080F01D0C0F884104161016005
S214400990704700BF10B44164019C0CB1416600E052
S2144009A001660BB1016500E041650AB1016300E0F4
S2144009B04163016101605DF8044B7047C06C70474D
S2144009C0806C70472DE9F041044688460E4B9847A8
S2144009D0054620460D4B9847054013D00C4C04F175
S2144009E060062368434508D16168294205D0E3681C
S2144009F040469847636825EA0305B44202D010345F
S214400A00002DEED1BDE8F081BD094000C10940008F
S214400A101409402008B50A210148024B984708BDF2
S214400A20000E0E40C509400008B50B210148024B98
S214400A30984708BD00100E40C509400008B50C2177
S214400A400148024B984708BD00120E40C5094000B9
S214400A5008B510210148024B984708BD00140E40C7
S214400A60C509400008B511210148024B984708BD0A
S214400A7000160E40C5094000032807D0042808D0B9
S214400A8002280CBF4FF48072002204E04FF44072FC
S214400A9001E04FF4007206490B6B23F44073134396
S214400AA00B630A46936E13F0080FFBD0704700BFE7
S214400AB000060E40184A136B23F070031843106369
S214400AC0936E13F0080F03D009E0013B03D11EE0FC
S214400AD04FF4805310498A6E12F0080FF5D00E4A34
S214400AE0136B23F0030343F002031363906E10F07E
S214400AF0080004D000207047013B03D109E04FF4C2
S214400B00805305498A6E12F0080FF5D070470120D1
S214400B1070470120704700BF00060E4038B10E49AE
S214400B200B6A0E4A1A400E4B13430B6270470A4834
S214400B30036A090289B20B4A1A400B4B1343194306
S214400B4001620246936E13F0010FFBD0024A116A0F
S214400B50064B0B431362704700060E40FCFFC8FE70
S214400B6002003701FCFFC8FF0100370000003701D4
S214400B70024B986E00F48030704700BF00060E406F
S214400B804FF00052014B9A62704700BF00060E407D
S214400B90024B986E00F00200704700BF00060E4001
S214400BA03F281ED81F280CD8114B9A690123834032
S214400BB0934318D0012303FA00F00D4B1861002030
S214400BC0704720380A4BD3F80821012383409343CB
S214400BD00BD0012303FA00F0054BC3F800010020B8
S214400BE0704701207047002070470020704700BFC4
S214400BF000060E4010B489014318022444504FF0BA
S214400C00FF319962196A5A605DF8044B704700BF1D
S214400C10890105234350704700EB8111CA61704734
S214400C2000EB81114A627047F0B486B0022401940A
S214400C300824029420240394802404940A9CE40B01
S214400C400594B0EB510F1CD84C0CA0421FD201AEFD
S214400C50012556F8044FB1FBF4F4270C844212D316
S214400C60874215D90135052DF3D1002013E006A99A
S214400C7001EB850151F8141C116033B11D60012051
S214400C8009E0002007E0002005E0012003E0002501
S214400C90002AECD1F1E706B0F0BC7047436913F088
S214400CA0020F02D0C161002070470120704700BF8C
S214400CB0436913F0010F03D083690B70002070471F
S214400CC00120704710B40C0194420FD91AE04168D5
S214400CD041F400214160120402F4E0221A43026209
S214400CE000201CE001201AE0012018E0630803EB16
S214400CF0C202B2FBF4F2D3085C1E4FF6FE718C4281
S214400D00E9D9EFE7C9004B0803EBC202B2FBF1F2A8
S214400D10D3085C1E4FF6FE718C42E5D8D7E75DF8E7
S214400D20044B7047084BC0F8E430002343604362EE
S214400D30836288230360242303604FF48073036038
S214400D404FF40023036070470041535570B5054685
S214400D500C4616460F4B984700220F4B1A609CB124
S214400D603246216828460D4B9847024670B961685E
S214400D70A368194323691943E3680B4306490B608C
S214400D8069680B436B6002E0012200E001221046D6
S214400D9070BD00BF250D400084094020C50C4000B2
S214400DA040230360704700BF10230360704700BFB6
S214400DB0436913F0020F04D0C1F30801C16100205B
S214400DC070470120704700BF436913F0010F05D0FC
S214400DD08369C3F308030B60002070470120704707
S214400DE0FEE700BF00B583B0274B284A9A4203D09F
S214400DF0274B254A9A4204D3264B274A9A420FD37A
S214400E001AE02149254B5B1A23F0030304331F4A9B
S214400E10134452F8040B41F8040B9A42F9D1EBE71D
S214400E201F4B204AD21A22F003021A44043B0021E8
S214400E3043F8041B9342FBD11B4A1C4B23F07F0311
S214400E409360EFF31083B3FA83F35B09019372B6B2
S214400E50BFF35F8F0022164B1A700199154A13682C
S214400E6043F470031360BFF34F8FBFF36F8F29B106
S214400E7001220F4B1A70BFF35F8F62B60E4B984736
S214400E800E4B9847FEE700BF00004020D8ED4000DC
S214400E90F4084020FC484020F8084020F308402052
S214400EA0FC084020FF48402000ED00E000004000E5
S214400EB00000402088ED00E04D7E4000D97C400098
S214400EC03C4B1B6B03F00303012B0FD013B1022BDB
S214400ED029D057E0384B5B6913F0800F14BF4FF4AE
S214400EE000424FF4FA42354B1A604BE0314B1B6AD6
S214400EF013F0807F03D0324A304B1A6042E0314ACA
S214400F002E4B1A602B4B1B6A03F07003102B02D03B
S214400F10202B04D036E02C4A284B1A6032E0284A70
S214400F20264B1A602EE0234B1B6A13F0807F03D0BB
S214400F30234A224B1A6012E0224A204B1A601D4B6D
S214400F401B6A03F07003102B02D0202B04D006E05F
S214400F501D4A1A4B1A6002E0194A184B1A60154B84
S214400F601B6B03F00303022B0CD1124A936A926A5E
S214400F701248C3F30A41036801FB0333D2B2B3FB02
S214400F80F2F303600B4B1B6B03F07003702B07D11F
S214400F900A4A13680D49A1FB03135B0813607047A8
S214400FA0044B1B6B0549C3F302120B68D3400B601E
S214400FB0704700BF00060E4010180E400400402048
S214400FC0001BB70000093D0000127A00ABAAAAAA8F
S214400FD0124B984204D84FF08062114B1A6070470B
S214400FE0104B984203D8104A0D4B1A6070470F4B6F
S214400FF0984203D80E4A0A4B1A6070470D4B9842E7
S21440100003D80D4A064B1A6070470C4B984294BF63
S2144010104FF004220A4A024B1A607047FF2C3101F7
S214401020000C0E40FF59620200010004FF86930345
S21440103000020004FFB3C40400030004FFE0F5050B
S21440104000050004094B1B6813B9094A074B1A6090
S214401050064B1B681A180749914204DB1046034AA0
S2144010601060184670474FF0FF30704788094020A0
S214401070004F4020FCFF45204FF0FF30704700BF38
S2144010804FF400534B600020704700BF012070476C
S21440109000207047030A43EA002080B2704700BF32
S2144010A0030A43EA002080B2704700BF030E43EABB
S2144010B00062030203F47F031343000A00F47F40F8
S2144010C01843704708B5014B984708BDAD1040001F
S2144010D0037B8B4203D001730023437343837047E3
S2144010E030B44469038B5D1C0583234483F8F010B9
S2144010F04169038B5C1C04830B4483F8F02030BCAE
S214401100704700BF10B44269038B5C1C04831344D1
S21440111083F8F0105DF8044B704700BF10B4426986
S214401120038B5C1C048313440A0A83F8F02042694C
S214401130038B5C1C0483134483F8F0105DF8044B67
S214401140704700BF10B44269038B5C1C0483134491
S2144011500A0E83F8F0204269038B5C1C0483134418
S2144011600A0C83F8F0204269038B5C1C048313440A
S2144011700A0A83F8F0204269038B5C1C04831344FC
S21440118083F8F0105DF8044B704700BF00B9FEE7E7
S21440119010B402464169038B581C10830B44FF2150
S2144011A083F8F010002405E05169581C10830B4466
S2144011B083F8F040138B432BF6D95DF8044B704709
S2144011C000B9FEE72DE9F041074601B9FEE71546AE
S2144011D00C4600224FF49A7110464B4B98472061BC
S2144011E0002800F08C80637B1BB9484A13680133A3
S2144011F01360464B1B68236042686261012313708C
S21440120062695370636997F82A209A70636900266A
S214401210DE70D4F8148020683D4B9847C8F8040028
S21440122063691E725E7263699E72DE7263691E73C4
S2144012305E739E73DE73082D08D0042D06D0032DF2
S21440124007D1237B043BDBB2012B02D863697A6863
S214401250DA6062690023137453749374D3746269BA
S214401260137553759375D375626913765376937673
S214401270D37607F12B019C4660691A4697F82AE018
S2144012809EB2B6458CBF0E7866460244167701334A
S2144012900131102BF0D10023194662691A4482F8B6
S2144012A02C100133402BF8D10023194662691A44AA
S2144012B082F86C100133802BF8D1626900236321D9
S2144012C082F8EC106FF07D0082F8ED00532082F833
S2144012D0EE0082F8EF10238362691A4482F8F030F9
S2144012E00133442BF8D1012235212046094B98473B
S2144012F029462046084B98470020BDE8F0814FF02D
S214401300FF30BDE8F08100BF29374000080040208C
S214401310AD104000E11040000511400000B9FEE766
S21440132010B50446006908B1024B98470023236174
S214401330636110BDC936400070B582B00646446A47
S214401340042120461F4B98470322214630461E4B19
S21440135098470546D8B90222392120461B4B984764
S214401360318D20461A4B984720461A4B9847218B7A
S214401370F03189B22069184B984721696068009619
S2144013804323164A164EB0472046164B9847637B73
S2144013900133DBB26373092B06D8C3EB431203EB6E
S2144013A08203DB009BB201E042F2107303F2F313B8
S2144013B00D4A82FB0312DB17C3EB62136383284696
S2144013C002B070BDD1104000C1114000E110400095
S2144013D01D1140008D1140007D38400098E74000C8
S2144013E0356940001D134000D34D6210F0B583B000
S2144013F00646446A0023636206212046284B9847E7
S214401400012221463046274B9847054600282CD1D6
S214401410022239212046244FB847318D2046234B9F
S2144014209847042237212046B84701212046204FBE
S214401430B84703212046B8471C212046B847062116
S2144014402046B84720461B4B9847218BF03189B23F
S2144014502069194B98472169606800964323174ACC
S214401460174EB0472046174B9847637B0133DBB295
S2144014706373052B05D84FF47A7202FA03F39BB2D6
S21440148001E04EF6602303F2F3130F4A82FB031289
S214401490DB17C3EB62136383284603B0F0BD00BF7F
S2144014A0D1104000C1114000E11040001D11400025
S2144014B0051140008D1140007D38400098E74000FF
S2144014C0356940001D134000D34D62102DE9F043AE
S2144014D083B00646446A01212046344B984703228F
S2144014E021463046324B98470546002842D10222D4
S2144014F0392120462F4FB847318D20462E4B9847EE
S214401500042232212046B847606ADFF8CC90C847AC
S21440151001462046DFF8C480C047042236212046D4
S214401520B847206AC84701462046C04704223721AC
S2144015302046B84701212046204FB8470321204681
S214401540B8471C212046B84706212046B8472046C3
S2144015501B4B9847218BF03189B22069194B98472D
S2144015602169606800964323174A184EB0472046C4
S214401570174B9847637B0133DBB26373052B05D863
S2144015804FF47A7202FA03F39BB201E04EF6602300
S21440159003F2F3130F4A82FB0312DB17C3EB62130B
S2144015A06383284603B0BDE8F08300BFD1104000F7
S2144015B0C1114000E11040001D11400005114000DF
S2144015C08D1140007D38400098E740003569400066
S2144015D01D134000D34D6210C51040004511400019
S2144015E0F0B583B00646446A03212046264B98470A
S2144015F0032221463046254B98470546002827D1EA
S214401600022239212046224FB8474FF41071204617
S214401610204B9847042232212046B847606A1E4B2A
S2144016209847014620461D4B984720461C4B9847F6
S214401630218BF03189B220691A4B9847216960683E
S21440164000964323184A194EB0472046184B9847F1
S214401650637B0133DBB26373092B06D8C3EB4312BB
S21440166003EB8203DB009BB201E042F2107303F20D
S214401670F313104A82FB0312DB17C3EB6213638338
S214401680284603B0F0BD00BFD1104000C111400055
S214401690E11040001D114000C510400045114000BB
S2144016A08D1140007D38400098E740003569400085
S2144016B01D134000D34D621038B50546446A0821D4
S2144016C02046074B9847002204F124012846054B44
S2144016D09847637B013363730123638338BD00BF40
S2144016E0D1104000ED6D400000B9FEE730B583B044
S2144016F00546446A04B9FEE7636BB3F1FF3F0FD07B
S2144017001E332E4AA2FB03235B094FF6FF72934219
S21440171028BF13469BB20BB1A38301E00123A383EA
S214401720A36BB3F1FF3F0FD01E33244AA2FB032323
S2144017305B094FF6FF72934228BF13469BB20BB12C
S214401740E38301E00123E383E38BA28B9A4202D337
S2144017500BB10023A383A37B13B1A36A01930EE0CE
S21440176094F8243013F0800F02D1FF23019306E053
S214401770BF2B8CBF6FF07F434FF6FF730193E36A36
S21440178000932BB9626A019B134043F08073009329
S21440179004F1240128460A4B984701A92846094BDC
S2144017A0984769462846084B98472846074B984727
S2144017B00A212046064B984703B030BD8988888862
S2144017C0E9344000D1354000C5354000E935400099
S2144017D0D11040002DE9F04F8BB09346D0F824A0AE
S2144017E053892B2B40F2CD81814655682B78022BAE
S2144017F040F0C78190F82A10B9B190F82B202B7F83
S2144018009A4240F0BE8100F12B0305F11C020139DB
S214401810C9B22B31014406E013F8014F12F8010F0C
S214401820844240F0AE819942F6D16868A14B984711
S214401830DAF80030984240F0A4819F4B00221A60AC
S2144018405A601A81BBF80A302B2B40F29A81DBF89B
S2144018500430CAF80830BBF808400292F023CDF8AE
S21440186014A0CDF81C90CDF804B0A3460AE000239F
S21440187002934FF06C0B2C2304E0002302934FF0AE
S2144018806C0B2C23019D002D00F072816A899342D7
S214401890C0F07E819B1A9BB2C2EB0B0B1FFA8BFBF0
S2144018A02D68002D00F069816A899A42F2D970E16C
S2144018B0581C6C89A04203DA0398024452787AE1B5
S2144018C02A68002A00F076815268127873E1013364
S2144018D09BB281E0042A00F0EB81FEE7032A00F287
S2144018E0EA81FEE712F0030F00D0FEE71446082A0E
S2144018F028BF0824944218D9FEE7042A00F0DE8167
S214401900FEE7012A00F0DD81FEE7012A00F0DC81D7
S214401910FEE7042A00F0DB81FEE7042A00F0DA81C5
S214401920FEE7042A00F0D981FEE7991C12FA81F2FC
S21440193092B20492002C4ED00827002209925E4AAA
S214401940D25D002A45D102339EB25B4B07EB0309BA
S2144019505A4B03EB870AAAF1040AB8460696C7EB29
S2144019600803069A02EB83039BB2032C94BFA2B2F1
S214401970042209A92846524EB047042C14D914F024
S214401980030F00D0FEE7012389F8003009984D4B3D
S21440199098474AF8040F043CE4B208F1010819F8E5
S2144019A0013F002BDBD014E0042C04D10998414BB6
S2144019B09847099005E0012C00D0FEE79DF82430BA
S2144019C0099301233C4A02F80830099B3B4A42F8F7
S2144019D02830049B00E0049B6A899A420DD89B1AE3
S2144019E09BB2C2EB0B0B1FFA8BFB5B450ED2BBF1D7
S2144019F0000F0BD02D686A6803923DB11A460399D2
S214401A00C95C9B4502D9FF297FF452AF2A4B1B780D
S214401A106BB12A4B1B680021274A1170012B00F03E
S214401A206681022B3FF423AF032B00F05E81029BBE
S214401A30002B7FF422AFDDF814A0DDF81C90DDF813
S214401A4004B01D4B5B78002B00F09B801B4B1B7932
S214401A50052B4FD19AF80C30012B43D1D9F82440AE
S214401A600023A362E362144BDB7813B1134BDB68AD
S214401A702363114B1B791BB1104B1B69636302E058
S214401A80236B5B0863630C4B5B791BB10B4B5B6949
S214401A90A36301E0236BA363A3681B696362064BE1
S214401AA09B798BB1054B9869064B9847A0620123FA
S214401AB0A3730BE0C5104000343840204038402027
S214401AC0F9394000AD1040000023A3738B4BDB79FF
S214401AD023B18B4BD8698B4B9847E06248468A4B7C
S214401AE098474EE0033BDBB2022B4AD84846874B2A
S214401AF0984746E0062B21D19AF80C20D31EDBB23D
S214401B00022B01D9012A3CD1D9F824504846804BB3
S214401B109847804C214648467F4B98472146484642
S214401B207E4B9847214648467D4B98470C21284691
S214401B307C4B984748467C4B984722E0022B20D166
S214401B409AF80C30062B1CD10023AAF81A30D9F884
S214401B5024406A4B9B78A3B1694B9868694B984779
S214401B602062A3681B6963624846704B984708E04A
S214401B70DDF814A0DDF804B003E0DDF814A0DDF8CD
S214401B8004B00023CAF808305846694B9847B2E07C
S214401B90019D6A68114603921A46C95C9B457FF6CA
S214401BA035AFFF297FF484AE30E7023312FA83F371
S214401BB09BB211E700223B29F7D801A050F821F04C
S214401BC0CF184000D5184000AB1B4000DD18400041
S214401BD0AB1B4000AB1B4000E5184000AB1B400071
S214401BE0AB1B4000AB1B4000AB1B4000AB1B400098
S214401BF0AB1B4000AB1B4000AB1B4000AB1B400088
S214401C00AB1B4000AB1B4000AB1B4000AB1B400077
S214401C10AB1B4000AB1B4000AB1B4000AB1B400067
S214401C20AB1B4000AB1B4000AB1B4000AB1B400057
S214401C30AB1B4000AB1B4000AB1B4000AB1B400047
S214401C40AB1B4000AB1B4000AB1B4000AB1B400037
S214401C50AB1B4000AB1B4000AB1B4000AB1B400027
S214401C60AB1B4000AB1B4000AB1B4000AB1B400017
S214401C70AB1B4000AB1B4000AB1B4000AB1B400007
S214401C80AB1B4000AB1B4000AB1B4000FB184000AA
S214401C90031940000B19400013194000AB1B4000CD
S214401CA0AB1B4000AB1B40001B19400023194000F3
S214401CB01446062713E00727042410E0144603279B
S214401CC00DE0144600270AE01446012707E01446B4
S214401CD0022704E01446042701E014460527991C11
S214401CE012FA81F292B2049227E6012302934FF051
S214401CF0EC0B6C23C6E50BB0BDE8F08F34384020C3
S214401D0040384020AD104000B9164000E91640006B
S214401D10213640009CE74000E9344000C53540008D
S214401D20D1354000D1104000ED134000CD144000A6
S214401D30C936400000B9FEE730B583B00546446A70
S214401D40002C34D0237B082B31D10A68636A9A4230
S214401D502DD10C212046174B984704222146284671
S214401D60154B9847F0B9042232212046134B98472A
S214401D70606A134B984701462046124B98472046C8
S214401D80114B9847218BF03189B220690F4B984709
S214401D9021696068009543230D4A0E4DA8472046AA
S214401DA00D4B9847637B013363731423638303B0FF
S214401DB030BD00BFD1104000C1114000E1104000CE
S214401DC0C5104000451140008D1140007D38400050
S214401DD098E74000356940001D13400070B582B05A
S214401DE00646446A05212046204B98470322214652
S214401DF030461F4B98470546E0B902223921204617
S214401E001C4B9847318D20461B4B984720461B4B12
S214401E109847218BF03189B22069194B9847216940
S214401E2060680096432304F12002164EB0472046D1
S214401E30154B9847637B0133DBB26373092B06D897
S214401E40C3EB431203EB82031B019BB201E044F653
S214401E50206303F2F3130D4A82FB0312DB17C3EB36
S214401E6062136383284602B070BD00BFD1104000A5
S214401E70C1114000E11040001D1140008D1140008E
S214401E807D384000356940001D134000D34D621038
S214401E9070B5154B1C6834B3144E154D636AFBB1D0
S214401EA0DA8B511ED983012A0AD1636A1B7B03F061
S214401EB0FB02012A01D00A2B12D12046A8470FE088
S214401EC0626A938B591E9183012B09D1636A1B7BEF
S214401ED003F0FB02012A01D00A2B01D12046B0476D
S214401EE02468002CDAD170BD8C484020DD1D4000AF
S214401EF039134000F0B583B00546446A00212046B9
S214401F00274B9847002323626362A362E362A3637E
S214401F1063632363072221462846224B984706469A
S214401F2098B92046204B9847218BF03189B22069DA
S214401F301E4B9847216960680095432304F12002B0
S214401F401B4FB84720461B4B9847637B0133DBB299
S214401F506373092B06D8C3EB431203EB8203DB0003
S214401F609BB201E042F2107303F2F313124A82FB73
S214401F700312DB17C3EB6213638328460F4B984765
S214401F800F4C214628460F4B9847214628460E4B75
S214401F909847214628460D4B9847304603B0F0BD3B
S214401FA0D1104000C11140008D1140007D384000E6
S214401FB0356940001D134000D34D62102136400065
S214401FC09CE74000E9344000C5354000D13540002C
S214401FD0F8B52B4B1C68002C51D02A4D2A4F2B4E5F
S214401FE0626A002A48D0538B012B02D9013B5383A7
S214401FF042E0012B40D100235383626A137B0C2BB3
S21440200001D0062B02D12046A84735E0012B0BD144
S214402010537B052B03D820461D4B98472CE0204683
S214402020B0472046A84727E0082B07D1537B012B13
S214402030204694BF174B184B98471DE0052B03D1FD
S2144020402046164B984717E0042B0BD1537B082BA2
S21440205003D82046124B98470EE02046B04720460D
S214402060A84709E0032B07D1537B012B02D8204613
S214402070B84701E02046A8472468002CB0D1F8BDF8
S2144020808C484020ED134000E1154000F51E40000E
S214402090CD144000B9164000E9164000DD1D400052
S2144020A03913400000B9FEE710B5446A90F8312075
S2144020B022F0080280F831204CB1606818B1044B19
S2144020C098470023636000212046024B984710BD86
S2144020D0B16A4000D110400000B9FEE770B5044632
S2144020E0456A90F8313023F0080280F8312013F02A
S2144020F0200F40D0038DB3F5107F3FD33DB93C2031
S214402100234B9847054600283BD0606203E068684A
S21440211008B1204B98473C22002128461E4B984742
S2144021201E4B9847686000282ED0037A43F0200361
S21440213003721B4E4422314668681A4B9847432226
S21440214031466868184B9847224618496868184BC5
S21440215098472046174B984728B12046164B984735
S2144021604FF0FF3070BD94F8313043F0080384F8E8
S2144021703130002070BD6FF00D0070BD4FF0FF3065
S21440218070BD4FF0FF3070BD4FF0FF3070BD00BFE8
S21440219065334000B16A40005D804000ED6A400013
S2144021A09CE740005D684000496A4000D517400003
S2144021B0A96A4000ED134000A52040002DE9F043F9
S2144021C085B0804689461546002224210120224BB0
S2144021D0984700283DD00646D8F80470446884F8EE
S2144021E000906570002525716571A571E571D0F880
S2144021F004C0D8F80430D3F800E058689968D3F89B
S2144022000C80CCF808E0CCF80C00CCF81010CCF8D9
S2144022101480D3F810E058699969CCF818E0CCF8E7
S2144022201C00CCF82010A570E570718920460B4B39
S21440223098476080FB6804AA42F8043D0123019356
S2144022400095FF2329463046054CA0473046054BAF
S214402250984705B0BDE8F08329374000F524400094
S21440226075284000C93640002DE9F04385B0064643
S214402270884647683C7804F00F04A40065422DB2B7
S2144022802946464B984700287ED13389032B7BD975
S21440229073681B78082B73D1414BD3F800904146A6
S2144022A04846404B984720B909F0F009B9F1E00F8D
S2144022B003D130463C4B98476DE03389072B63D9B2
S2144022C030463A4B984718B13046374B984762E00D
S2144022D024B222213046314B9847F8B12146304649
S2144022E02E4B9847002853D1002231890220304B8C
S2144022F09847814600284BD031462E4B98470028B9
S21440230046D1D9F8047029464846244B98470028B9
S2144023103ED13046244B98474E4606E06FF02101AA
S21440232030461E4B9847002832D172681C4B1B68BB
S214402330FB60214B1B683B610023137053884FF6AC
S214402340F6718B428CBF093308335380FF233B72B0
S2144023500023BB72FB7214213846184B984778818D
S214402360214630460D4B984750B9CDF8088001239A
S214402370019300220092FF2309493046104CA047A3
S2144023803046094B984706E03046074B984702E0F0
S2144023903046054B984705B0BDE8F08359364000B7
S2144023A070384020B5284000C9364000052540001A
S2144023B0293740004D39400068384020F524400019
S2144023C08127400008B50A460321014B984708BDBF
S2144023D0BD21400008B50A460B21014B984708BD71
S2144023E0BD21400070B483B00023ADF8063000F045
S2144023F0010616F0FF0F06D0994204DD03788DF8EB
S214402400073001390130012910DD04460B46002211
S21440241034F8025B2A44023B012BF9DC02394B08B4
S2144024205C1C00EB4400A1EB430100E000220029C5
S21440243002DD03788DF80630BDF80600024490B2FF
S21440244000EB124293B203EB124026B103029BB25A
S214402450C0F30720184380B203B070BC704700BF7B
S2144024602DE9F0478A469146984600B30546002631
S21440247034461E4F69896868B847204484B204EBE6
S21440248010446B8913F0010F07D0C6F10106F6B26F
S21440249023029BB2C4F307241C432D68002DE9D1C8
S2144024A036B123029BB2C4F307241C4300E0002449
S2144024B0DAF80030D9F800001A0C12FA83F313FA4F
S2144024C080F303EB104004444046094DA8470444BB
S2144024D0BDF82000A847204483B203EB104083B2E7
S2144024E003EB1040C04380B2BDE8F087E5234000D0
S2144024F09510400008B5024B9847C04380B208BDCF
S214402500E5234000F8B500B3054600263446114F93
S21440251069896868B847204484B204EB10446B89E4
S21440252013F0010F07D0C6F10106F6B223029BB2A4
S214402530C4F307241C432D68002DE9D136B123028D
S2144025409BB2C4F307241C4300E00024E04380B25F
S214402550F8BD00BFE52340000E4B1B686BB193F8F7
S214402560312012F0010F05D001685A684A40996838
S2144025700A420DD01B68002BF1D1074B186840B1BA
S21440258090F8313003F00103002B08BF002070475D
S214402590184670478C484020904840202DE9F84F18
S2144025A00646D0F8049099F800502B09042B02D028
S2144025B0644B9847C2E0884605F00F05AD00B9F871
S2144025C00200614B984704467389AB4202D3338975
S2144025D0834203D230465B4B9847AFE02946484695
S2144025E05A4B984718B13046564B9847A6E0214676
S2144025F03046574B9847D9F81020564B1A60D9F8B2
S2144026000C20554B1A6044460127DFF848B1DFF8E6
S2144026106CA194F8313013F0010F0CD014F1040F74
S21440262009D063683BB1DBF80000834210D02146F6
S2144026304A4B984760B917B1DAF8004000E0246882
S214402640444508BFD8F800400027002CE1D101E0FF
S214402650002C6ED199F80930112B65D14D446B880A
S214402660B3F5884F60D10EE0002441463B4B984777
S21440267028B9394B1B6803F0F003E02B04D13046F1
S214402680304B98475AE044461CB930462D4B984745
S21440269054E0B9F8063023F0C0039BB23BB1304655
S2144026A02F4B98470646002848D0D0F804902D4B2C
S2144026B0C3F800802C4BC3F8009099F80930062BDD
S2144026C009D0112B02D0012B0FD109E041463046EC
S2144026D0264B98471EE041463046254B984719E022
S2144026E041463046234B984714E04146194B1868FC
S2144026F01A4B984758B9174B1B6803F0F003E02B6A
S21440270005D0C6F80490022130461B4B9847304609
S2144027100C4B98470023134A1360134A13600E4A23
S21440272013600C4A136009E00B4B186800289BD1D5
S214402730ABE7094B18680028ABD096E70020BDE809
S214402740F88F00BFC9364000A1104000F524400075
S2144027507D3840007038402068384020B52840001A
S214402760252B40006C384020743840205D66400081
S214402770D950400069224000C52340008C48402084
S2144027802DE9F04F87B0054602919DF840909DF8A0
S21440279044B0129E0192002A48D09846174614210B
S2144027A0304B9847002858D16C6884F8088084F8E5
S2144027B009B048EA0B2A3B6823611A0C12FA83F2E6
S2144027C003924523237084F801904FEA092949EA89
S2144027D0030B2889244FB847804660800023A371A6
S2144027E0E371DFF88C90B9F80000B847A080B9F8DC
S2144027F000300133A9F80030029B0BB11B6813B9B7
S2144028007368E36000E0E360E268039B13FA82F3D8
S21440281003EB12435B4453449844404483B203EB77
S214402820104000EB1040C043608105E043681B69E0
S21440283006AA42F8043D0192338D43B12A899A4252
S21440284005D9019A31462846084B984707E07369F0
S214402850019A29463046984701E06FF0010007B0DC
S214402860BDE8F08F59364000951040008D2E400050
S2144028708C094020F0B585B005460E4614461F46E6
S21440288010460A4B984768B102909DF82C30019349
S2144028909DF8283000933B46224631462846044C55
S2144028A0A04701E06FF0030005B0F0BD5925400099
S2144028B0812740000246431E13F1030F14D891F8B7
S2144028C0313003F0020303F0FF0093B14B689A42A5
S2144028D00CD0896853400B420AD1C94331EA0203FF
S2144028E00CBF012000207047012070470020704731
S2144028F0002070472DE9F04F85B0019103680DF137
S214402900100E4EF8043D0DF1100B8C460026B046D6
S214402910274F4FF02E0A75469EF80030414600E09D
S2144029202146A7FB0340C00800EB8004A3EB44030A
S2144029304C1CE4B230330DF11009894409F8083CC8
S21440294000F0FF030028EBD185F800800EF1010E61
S214402950BCB1B24224DD6346741CCCEB0404CCEB21
S214402960060604E00139C9B2981982421ADD1D19DB
S21440297004A8084410F8080C03F8010B0029F1D10C
S21440298001E0354663466E1CAA420DDD03F1010C9C
S21440299083F800A0DE45BED100221A70019804E0FC
S2144029A0002002E0002000E0002005B0BDE8F08FE7
S2144029B0CDCCCCCC08B510220149024B984708BD77
S2144029C090094020F52840002DE9F04781468A4688
S2144029D045686B689A88D2B91B6843606A68034644
S2144029E053F8081F5E689C68D8681160566094600B
S2144029F0D06019691161012128461A4B984728462C
S214402A00194B984784B22846184B984700E0002454
S214402A10D9F804606EB1DFF85080144F73681D68B3
S214402A203046C047204484B23046B8472E46002D34
S214402A30F4D10F4B1B68994504D1D9F800200C4BB4
S214402A401A6003E0D9F80030CAF80030494604203E
S214402A50084B9847084A13881B1B13802046BDE83E
S214402A60F08700BFD5234000DD384000C93640001F
S214402A70A0094020CD344000A40940202DE9F84369
S214402A80054688460026184FDFF860903B6843B3FB
S214402A90D5F80CE000242146204601E019461346AE
S214402AA05A69724509D1D5F810C09A69624504D171
S214402AB0B3F80CC0AA88944509D0013430B193F8D5
S214402AC01FC0C27F944598BF184600E018461A6853
S214402AD0002AE3D108B1C8470644464501DA012C2E
S214402AE0D4DC3046BDE8F883A0094020C929400020
S214402AF00A4B186880B170B50024094EC37F23B1D5
S214402B00013BC3770446006803E005682146B047AA
S214402B1028460028F2D170BD704700BFA00940206B
S214402B20C92940002DE9F04F83B007464668337800
S214402B3003F00F03052B40F05481F088AF4CA047BC
S214402B4083467088A047019096F800A03846AC4B64
S214402B5098478046AB4B1B8803440A2B0CDD014646
S214402B603046A94B9847002800F03B81A54B1B8870
S214402B7043440A2B00F33581A44B1C68B4B1F26879
S214402B80002500E01C466369934207D13369A1697A
S214402B90994203D1A189B388994204D02368254637
S214402BA0002BEFD102E0002C37D12C460420984B66
S214402BB09847814668B941463046934B984780458A
S214402BC000F30F810420924B98478146002800F07E
S214402BD008812022002148468E4B9847032389F8D7
S214402BE01F308A4B1A68C9F80020C3F80090326834
S214402BF07568B068F168C9F80820C9F80C50C9F87B
S214402C001000C9F814103269C9F81820B9F1000F3D
S214402C1000F0E78025464C4617E0F088774B98470B
S214402C20C0F30C0088B9E089744B9847C0F30C0099
S214402C3058B13268D6F804E0B068F168A260C4F8CB
S214402C400CE0206161613269A2616E4A1388984443
S214402C50A2F80080F38803F020039BB263B9A37FF9
S214402C6043F00103A3770AF00F0A019BA3EB8A09FE
S214402C7009EBCB0BA4F81CB07E687088DFF87C911B
S214402C80C84796F8008008F00F08A0EB88001FFAA7
S214402C9080F8F088C847C0F30C00C000D7F804C0DE
S214402CA000238CF800308CF801308CF802308CF819
S214402CB00330ACF8040080441FFA88F8ACF806806D
S214402CC06268A2B3536899888842C0F08F8056D015
S214402CD0DA88824253D84FF0010E1CE07268918821
S214402CE088420CD2CCF80060002B00F0C580D98812
S214402CF0814244D89288424541D31F601AE08842B8
S214402D003DD0D68886423AD823B1DB888B4218BF5E
S214402D104FF0000E13461E68002EDFD16BE01F609A
S214402D20DA88BCF804309A4240F0A48002E04FF0C3
S214402D30010E6760A37F13F0010F00F09B80BEF189
S214402D40000F00F09780606843689B88002B40F037
S214402D509180DCF80030002B66D05B68BCF806102B
S214402D609A88914207D085E05268D98893889942DC
S214402D7040F0808013461A68002AF5D154E0384661
S214402D801F4B98471F4A1388181A10803846224B04
S214402D9098476FE06FF0130BDFF884A0DFF884905D
S214402DA0776859463046D04731464046C8473E6821
S214402DB0002EF5D1154B1B689C4203D12268134B5D
S214402DC01A6001E023682B6021460420134B984785
S214402DD040460B4B98470B4A1388181A10804046BB
S214402DE04CE038460C4B9847002047E0CCF8002093
S214402DF04FF0010E40E0002B91D19AE7A110400021
S214402E00DD384000A40940207D2A4000A00940202B
S214402E10AD3440005D804000C9364000CD344000AF
S214402E205936400001394000A38B1433A3834768CA
S214402E303E68234653F8082FD3F804E09868D968CC
S214402E403A60C7F804E0B860F9601A693A61A08B46
S214402E500C4B984778800023BB71FB71BB72FB72AA
S214402E6014213846084B98477881D4F80480002EC1
S214402E7090D19FE7002001E067605BE703B0BDE8C4
S214402E80F08F00BF95104000F52440002DE9F04F2C
S214402E9089B004460390059106920E8DD0F804A0A2
S214402EA0BAF806003F4B9847C0F30C0B00F40050AE
S214402EB083B202932589143DADB2A6F11403019363
S214402EC0002BB8BF0733C3F3CF030493002D62D063
S214402ED0DB009BB207934FF01409CBF30C08029B20
S214402EE043EA0808019BAB4203DA48F40058079CC3
S214402EF000E02C460022214601202B4B98470646F0
S214402F0000284AD04B46224641680398274FB84788
S214402F1048441FFA80F914213046254B984728B17B
S214402F203046244B98474FF0FF3038E07368DAF865
S214402F300020DAF80470DAF80800DAF80C101A60A4
S214402F405F609860D960DAF810201A61776840466A
S214402F50DFF86880C047F88004F1140080B2C047AC
S214402F6078800023BB72FB7214213846124B984778
S214402F70788105984369069A3146984730460D4B06
S214402F8098472D1BADB2049B9B441FFA8BFB002D2C
S214402F90A3D1002003E0002001E04FF0FF3009B04D
S214402FA0BDE8F08FA110400029374000F9394000B5
S214402FB059364000C9364000F52440009510400080
S214402FC008B5064B9847064B9847064B9847064B1E
S214402FD09847064B9847064B984708BDC531400072
S214402FE039344000E534400059664000C93A400054
S214402FF0F130400070B504460E46154605201B4B82
S2144030009847002831D00146002303608660C5609B
S2144030104460174B1D680DB9186070BD68688442DF
S21440302014D2001B68600D60114B196070BD4B6870
S2144030305068181A4860136823B15C68A0420ED3E3
S2144030401A46F4E713680B60116070BD201A48609A
S2144030502A6842B153689842E9D213462A465C68C9
S214403060201A5860EEE72A46ECE770BDAD344000C3
S214403070B009402008B5094B1B686BB9084B1B6864
S21440308013B9084B1B683BB10122044B1A6000225F
S2144030900549FA20054B984708BD00BFA8094020BF
S2144030A09C484020B0484020B1304000F52F4000BA
S2144030B008B5094B9847094B1B6813B9084B1B6862
S2144030C02BB100220749FA20074B984708BD00223B
S2144030D0064B1A6008BD00BF394340009C4840205C
S2144030E0B0484020B1304000F52F4000A8094020AD
S2144030F010B500220C494FF47A700C4CA0470022C1
S2144031000B4941F28830A04700220A494EF660201B
S214403110A047002208494FF4FA70A047074B98474B
S214403120074B186010BD00BFA5314000F52F40008A
S214403130853140006531400045314000217B4000EC
S214403140AC09402008B5044B9847002203494FF489
S214403150FA70034B984708BDD11F400045314000E8
S214403160F52F400008B5044B9847002203494EF619
S2144031706020034B984708BD911E400065314000D3
S214403180F52F400008B5044B98470022034941F20A
S2144031908830034B984708BD656C40008531400039
S2144031A0F52F400008B5044B9847002203494FF4DA
S2144031B07A70034B984708BDF12A4000A53140007D
S2144031C0F52F40000A4B23F003030A4A13604FF4DE
S2144031D08051198000225A801A715A180648026097
S2144031E00120107111805180044A1360704700BF5F
S2144031F07B384020BC094020B8094020B409402014
S21440320000283FD00346204A126890423AD31F49CE
S2144032100868834236D270B4A3F10801002403F84C
S214403220044C1B4C2468A14201D2194C216033F84F
S214403230085C5419A14210D0267976B9A0420CD029
S21440324013480068844201D111480160505B23F85E
S214403250080C505B10448C1A448033F8060C141843
S214403260A1420ED0257965B9094D2D68A94201D1F4
S21440327007490C6033F8081C115233F8083C1A44CE
S214403280508070BC704700BFBC094020B809402041
S214403290B409402003314FF6FC730B400B2B03D987
S2144032A0B3F5805F01D951E00C232B4A1268824265
S2144032B050D82A49096888424CD2F0B4A0F1080494
S2144032C0A41AA4B230F8085CA5F10801091B89B21B
S2144032D099423DD33DD056193779CFB9555B04F165
S2144032E008010B449BB21E4909688E4202D1D11890
S2144032F01B4E3160D11800260E71D5524C8020F8F6
S214403300083CD15AB1F5805F23D00A44538020E070
S21440331003F114058D421CD804F108010B449BB2FE
S214403320D1180F4D2D68A94201D20D4D29600025B8
S2144033300D7130F8085CD5524C8020F8083CD15AC4
S214403340B1F5805F05D00A44538002E00020704704
S2144033500020F0BC704700BFBC094020B8094020A0
S214403360B4094020002859D0F0B4034603334FF642
S214403370FC741C400B2C03D9B4F5805F01D94FE098
S2144033800C242A4B19682A4B1B685B1A9BB2C4F55F
S2144033908055AB4246DA2646C8180279002A38D10C
S2144033A0CA5A083AD21A3746A24232D31437BA42D9
S2144033B013D304F108021A4492B28C1800252571E2
S2144033C005888D5263800280012303718B5AB3F5C2
S2144033D0805F04D00B445A8001E001230371144BF4
S2144033E01B68984213D11A7962B1124A11688B420F
S2144033F00BD00E4A14681B8823441A7922B18B429C
S214403400F9D102E0194600E01946094B1960083028
S21440341009E00388AB42BFDB002004E00020704791
S214403420002000E00020F0BC704700BFBC094020F0
S214403430B4094020B80940202DE9F047174D25F043
S2144034400305174B1C1F174F174E03F11C0C4FF06C
S21440345000080434A646C4F8008037F8020FB8B116
S214403460B6F800902B460022114600E053461960FD
S21440347003EB090A0132194693B29842F6D801384E
S21440348080B200FB099309FB0050CEF800001D44B3
S2144034900236A445DDD1BDE8F08700BFC309402011
S2144034A0A02440209EE74000B0E74000072800D90F
S2144034B0FEE7054B53F820301BB11968024A42F824
S2144034C020101846704700BFA02440200B4629B164
S2144034D0034A52F82010196042F82030704700BF67
S2144034E0A0244020704700BFF8B5044611B30D46EF
S2144034F00A6843689A4220D0114B186858B1114F59
S214403500026863689A4203D1C668B847304600E00E
S214403510C0680028F4D10C4B1B6873B133B11A68ED
S21440352022B161688A4201D12A681A60DB68002BA2
S214403530F4D102E000236360F8BD2B68FBE700BFD0
S2144035409C48402001444000A448402070B50446B2
S21440355016461D46064B98470EB1336800E00023DA
S214403560A3600DB12B6800E00023E36070BD00BF90
S214403570E9344000F8B50446002545608560C560DE
S21440358080F831504562C561069D05620A4E357821
S2144035906F1C377080F83450089D0561074DA8476A
S2144035A02046079B984728B9054B1A6822601C603E
S2144035B02046F8BD0020F8BDC02440204D354000D0
S2144035C08C48402009B10B6800E00023C360704778
S2144035D009B10B6800E0002383607047014B186018
S2144035E0704700BF9048402090F8313013F0010FEC
S2144035F013D110B5044643F0010380F83130C36957
S21440360003B1984794F8313003F03003302B03D1A0
S214403610211D2046014B984710BD7047D56C400091
S21440362090F8313013F0010F0FD010B5044623F058
S214403630010280F8312013F0200F01D0034B984749
S214403640E3690BB12046984710BD7047A96C40000F
S21440365000B1C161704700BF59B30B4648B310B4C0
S214403660002905DA4C42A4B24289A24201D2FEE7C2
S2144036708CB2017B426809B1032906D1D21A00F107
S21440368010018A4217D342600AE0013989B2012903
S21440369013D8002B11DA4189A14210D3D21A4260C6
S2144036A09BB242891A444281028913440381002016
S2144036B006E000207047012002E0012000E00120E3
S2144036C05DF8044B704700BF28B32DE9F041014632
S2144036D00024134D4FF00608124E13E00F680B7B84
S2144036E0032B02D10720B04708E0013B9BB2012BD9
S2144036F002D84046B04701E00846A8470134E4B245
S2144037005FB13946CB89013B9BB2CB81002BE5D0DC
S2144037102046BDE8F081002070472046BDE8F08195
S21440372001324000CD3440002DE9F843032800F232
S2144037309180DFE800F008020406222604E00E2608
S21440374002E0002600E0362617468846032A00F2A6
S2144037508480DFE802F0516B6B020720434B9847AA
S214403760054620B90122424B1A70BDE8F883032370
S2144037700373002303608319133323F0030343606A
S214403780A0F80880033626F00306C6F5C066464510
S214403790A8BF464646810123C381B4B2C4EB0804A1
S2144037A0002C50DD81460727304E4FF00308384640
S2144037B0B04740B901222E4B1A7028462D4B9847E9
S2144037C00020BDE8F88380F80C8000224273026037
S2144037D0C9F800000481A2B2B2F5C06FA8BF4FF48A
S2144037E0C062428100F1100141600121C181A41AEA
S2144037F08146002CDBDC26E006F1130020F00300B7
S214403800CB1C23F00303184480B21B4B9847054655
S21440381030B30644133626F003064660A0F8088008
S214403820A0F80A800023036003730CE006200F4BC9
S21440383098470546B8B100234360A0F80880A0F832
S2144038400A80036007730123EB8100236B732846CD
S214403850BDE8F8830020BDE8F8830020BDE8F88383
S2144038600020BDE8F8830020BDE8F883AD34400072
S21440387094484020C93640006533400002898A4259
S21440388026D938B50446438999420BD90D46EB1ADA
S2144038909DB223899B1A0B44238124686389AB42DB
S2144038A0F5D300E00D46227B4AB99D4207D06368B7
S2144038B01B1BE91889B22046064B9847044665818B
S2144038C02581206808B1044B98470023236038BD03
S2144038D0704700BF95324000C9364000034630B1BD
S2144038E000200130C0B21B68002BFAD17047002080
S2144038F0704700BF10B1C3890133C381704700BF12
S21440390028B1034619B110B4026812B909E0FEE7BF
S21440391002461C89088920441881106813460028EE
S214403920F6D118890A8902441A8119605DF8044B59
S214403930704700BF10B50C46024B98472046024BD6
S214403940984710BD01394000F53840002DE9F04752
S21440395030B10D46044619B102890B899A4200D20D
S214403960FEE74FF0000A5746DFF88890D046638956
S2144039706A89D81BCAEB0201884201DB8EB201E09D
S214403980DB1B9EB260686968324651443844C8477B
S2144039903744BFB256441FFA86FA6B89534501D85E
S2144039A02D68C2466389BB4204D124680CB905B170
S2144039B0FEE7474665B16A892B899A420AD12B6849
S2144039C043B1FEE7236803B1FEE7002DCFD10DE0FB
S2144039D014B90BE02CB9CAE7628923899A42F1D020
S2144039E004E0628923899A42C1D1EBE70020BDE812
S2144039F0F08700BF297F400000B9FEE72DE9F84F69
S214403A0088469346064601B9FEE74AB300252F4648
S214403A10DFF854A0A9462BB172899A4202D89B1A65
S214403A209BB214E07489E41AA4B25C4528BF5C4695
S214403A3071682246194408EB0700D0472544ADB2CA
S214403A402744BFB2C4EB0B041FFA84FB4B463668D0
S214403A50BBF1000F01D0002EDDD12846BDE8F88F1F
S214403A600020BDE8F88F00BF297F4000F0B4144B1B
S214403A7018884FF480434FF6FF764FF44045114C7C
S214403A80B04202D0013080B200E02846002254F80E
S214403A90221009680BE04F8B874207D1013B9BB24F
S214403AA0002BEDD1064A1080184607E0C968002969
S214403AB0F1D10132042AEAD1014B1880F0BC70479C
S214403AC010004020C0E74000704700BFF0B40146F9
S214403AD0866A858DAA19046BC38E40F2B450834221
S214403AE088BF0346101BC31A002B01DBCD8509E0B7
S214403AF0331B002B03DD0023CB85184602E0A41BB6
S214403B00CC850020F0BC704710B50446838D194420
S214403B1089B240F66833994201D8818502E040F682
S214403B20683383852046074B984740F2D92398420E
S214403B3006DDA37F43F00203A3772046024B984757
S214403B4010BD00BFCD3A4000D160400050B110B526
S214403B500446406808B1044B984721460320034B6F
S214403B60984710BD704700BFC9364000CD3440006E
S214403B7048B138B50346044D1C681846A847234646
S214403B80002CF9D138BD70474D3B400038B505464E
S214403B900320084B9847044650B128686968AA68CD
S214403BA0EB6820606160A260E3606068024B984703
S214403BB0204638BDAD344000F538400001617047BE
S214403BC0C0F88010704700BFC1677047C0F88C10BF
S214403BD0704700BF037E0A2B1AD0012B18D970B548
S214403BE00446806F18B10B4B98470023A367606F5D
S214403BF0094EB047002565674FF6FF73A386E06E13
S214403C00B047206FB047E5662567A4F86A5070BD98
S214403C10704700BFC9364000713B40002DE9F04F69
S214403C2083B0B14A136801331360B04A1378013346
S214403C3013701546AE4FDFF8ECB2AE4B1C68002C46
S214403C4000F0798100262B7894F821209A4201D101
S214403C50E4686DE184F82130227E022A05D194F88A
S214403C604630062B40F08981A7E094F846300C2B6E
S214403C7053D094F89510C9B194F894300133DBB220
S214403C8084F894309C4A0A4412F8012C9A4247D849
S214403C90002384F89430062902D8013184F8951020
S214403CA02046964B98474FF0000841E0B4F9341050
S214403CB0002901DB0131A186216FA1B3B4F934009C
S214403CC0B4F94410884231DB022A0BD0B4F94010D4
S214403CD0B4F9422002EBE1028949CB5C02FA03F3D5
S214403CE0A4F844300023A386B4F86020B4F84C30DF
S214403CF0934228BF13465B08A4F84E30E28EB3EBDF
S214403D00420F02DA5300A4F84E30A4F84C20204666
S214403D107C4B98474FF000080AE04FF0010807E058
S214403D204FF0000804E04FF0000801E04FF00008B4
S214403D30237E062B10D1A37F13F0100F00F02181B5
S214403D40694B1B68626A9B1A282B40F21A8108F15D
S214403D5001085FFA88F814E1227A12F0080F31D091
S214403D60042B01D0072B30D15F4B1A68636AD21AF6
S214403D70D4F89000644B0344ABFB0313B2EB531FE1
S214403D8006D908F101085FFA88F84FF0010926E0E5
S214403D9094F896105D4B03FB0103ABFB0313B2EBA9
S214403DA0531F15D920465A4B984794F896300133FE
S214403DB084F896304FF0000911E04FF000094FF0BC
S214403DC001080CE04FF0000909E04FF0000906E05A
S214403DD04FF0000903E04FF000094FF00108606F14
S214403DE010B910E04FF000093F4B1B68626A9A1A00
S214403DF0B4F9443003EB4303B2EB430F03D3454BD4
S214403E00984700236367237E032B0AD1364B1B68F3
S214403E10626A9B1A282B10D908F101085FFA88F8C5
S214403E200BE0092B09D1304B1B68626A9B1AF02BBA
S214403E3003D908F101085FFA88F8B8F1000F30D0CE
S214403E402046354B984716B1E368F36002E0E368D6
S214403E50284A1360B9F1000F0AD0A16A206DA38BDF
S214403E600193638B0093231D2246DFF8BC80C04736
S214403E70D4F88C80D4F810A0D4F80C9021460120B9
S214403E80264B984700233B70B8F1000F27D06FF0C1
S214403E9009015046C0473B78002B7FF4CEAE4C46D7
S214403EA046E0D4F80C80E37F0133DBB2E37794F846
S214403EB020209A4215D80023E3773B70D4F8883008
S214403EC03BB12146206998473B78002B7FF4B5AE3E
S214403ED060BB2046124B98472646444628E04C4650
S214403EE026E02646444623E0A0484020C224402000
S214403EF0984840209C484020E0E7400085654000C8
S214403F00D0E7400029644000B84C0A00F82401007D
S214403F1019654000713B4000D53B4000CD34400021
S214403F20D1604000D34D621085634000264644462B
S214403F30002C7FF488AE184B1C684CB30025174EF7
S214403F40DFF86080164F626A33689B1AF02B0FD9F1
S214403F502046C04715B1E368EB6002E0E2680E4BCE
S214403F601A60D4F80C9021460120B8474C4601E030
S214403F702546E468002CE6D10AE00C2B7FF479AEA7
S214403F8029E7606F00287FF42DAF4FF0000954E713
S214403F9003B0BDE8F08F00BFB0484020A0484020A6
S214403FA0CD344000D53B400010B50C4602688A42EE
S214403FB002D1D368036016E0164B1A609AB1D368F4
S214403FC099420BD105E0DA68944206D1114A136053
S214403FD000E01346E268DA6005E01346002BF2D1B3
S214403FE000220C4B1A600023E36020460A4B984799
S214403FF0237E0A2B0BD0012B09D0A37F13F0010F91
S21440400005D043F00203A3772046044B984700238D
S214404010237610BDA8484020D53B4000D1604000E4
S21440402030B583B00446002900F0B080037E042BF0
S21440403002D0072B40F0AA80A36F2BB9A28D40F682
S21440404068339A4200F0A280A38B0193638B00935F
S214404050231D2246A16A206D594DA8472046594B3C
S2144040609847594B1A68944202D1E2681A6016E0A3
S214404070564B1A609AB1D3689C420BD105E0DA6879
S214404080944206D1514A136000E01346E268DA6073
S21440409005E01346002BF2D100224C4B1A60002359
S2144040A0E36001224A4B1A70237E042B09D10A236F
S2144040B02376484B1A68E2601C60474B98470020BE
S2144040C07BE021460120454B9847002075E0638BF6
S2144040D0FBB1434B1A68944202D1E2681A6016E07C
S2144040E03A4B1A609AB1D3689C420BD105E0DA6825
S2144040F0944206D1354A136000E01346E268DA601F
S21440410005E01346002BF2D10022304B1A60002304
S214404110E36021460120314B984700234CE021467E
S2144041203048314B9847214602202C4B9847002375
S21440413042E0214624482C4B98470120244B1870D7
S2144041402146264B9847002336E02046274B984783
S214404150034688BB052323760EE02046234B98472C
S214404160034648BB0523237606E020461F4B984768
S214404170034608BB0923237624B120461C4B9847A8
S21440418000201AE0002018E0002016E0237E072BCF
S214404190FAD801A252F823F0CF4040001F41400019
S2144041A0334140004B4140005B4140008941400064
S2144041B0894140006B414000184603B030BD00BF07
S2144041C085634000D53B40009C484020A84840209E
S2144041D098484020B048402075304000CD344000DC
S2144041E0AC484020A4484020A93F40000960400019
S2144041F0D160400008B5037E012B03D0837F43F097
S214404200100383770121014B984708BD21404000A9
S21440421010B5084642B114461189064B98472046C9
S214404220054B9847002010BD13B9044B984710BD66
S214404230002010BD093B4000C9364000F541400013
S214404240F8B50446856F6F7B00238367D0F880609F
S21440425026B12A4601460069B04705E000232A46B3
S21440426001461846144EB047C0B917F0200F1BD071
S214404270A38D40F66832934201D00133A385D4F82B
S21440428080509DB100231A4621462069A84710F168
S2144042900A0F0CBF6FF009000020F8BD10F10A0F9E
S2144042A006D0A5670020F8BD0020F8BD0020F8BD68
S2144042B06FF00900F8BD00BF114240002DE9F843F9
S2144042C0184A137801331370174F1546DFF8648089
S2144042D0164E3C681CE0FEE784F82130A37F13F0BE
S2144042E0010F08D043F00203A3772046C047A37FC0
S2144042F023F00303A377D4F80C90A36F3BB10023BD
S214404300337020460A4B98473378002BE1D14C4611
S2144043102CB12B7894F821209A42DDD1DBE7BDE81A
S214404320F88300BFC22440209C4840209848402044
S21440433041424000D160400008B5064B9847064AC7
S21440434013780133DBB2137013F0010F01D0034B27
S214404350984708BDBD424000C12440201D3C400057
S2144043602DE9F04383B00446037E0A2B08D101466C
S2144043701C481D4B9847214601201C4B98472EE071
S2144043800E46D0F85080D0F82890D0F88C50076968
S21440439001461748144B98470122164B1A70206F57
S2144043A008B1154B9847E06E08B1134B9847606FBD
S2144043B008B1114B98474EB1A38B0193638B009382
S2144043C0231D2246494640460C4EB0472146012012
S2144043D0064B98471DB16FF009013846A84703B011
S2144043E0BDE8F083B0484020A93F4000CD344000AF
S2144043F09C48402098484020713B400085634000E0
S21440440008B50121014B984708BD00BF61434000F5
S214404410034A1068034B1B6818441060704700BF7F
S2144044200C004020A0484020F8B5054601203A4BF5
S21440443098470446002835D1384B1B6873B1384A34
S214404440146801465A6AA21A8A4201D3114618468F
S214404450DB68002BF6D108B1324B984701202E4B33
S21440446098470446F0B9304B1B68ABB12C4A1768E6
S21440447006467F215A7E8A4208D8954206D35C6A11
S2144044803C1BB44202D3114626461846DB68002B36
S214404490F0D108B1234B984701201F4B984704465C
S2144044A0002837D0982200212046204B9847657632
S2144044B040F66833A4F866300025A4F86850A38513
S2144044C0E3856572FF23A3724FF40673E3860623E3
S2144044D0A4F84430A4F84050A4F842304FF6FF7396
S2144044E0A3860123A4F84C30114B9847A06520655D
S2144044F0A064E0650A4B1B6863620E4B1B7884F829
S2144045002130E5770C4BC4F880300C4BC4F8903023
S21440451084F896502046F8BDAD344000B048402060
S214404520A0484020014440009C4840205D80400018
S21440453011444000C22440201142400000DD6D007E
S21440454008B54020014B984708BD00BF29444000AD
S21440455010B504460846064B984730B1038D23B144
S214404560283B9BB29C4228BF1C46204610BD00BF3D
S21440457059254000F8B5047E04B1FEE700296BD00B
S2144045801F460D4604460B684360828308B10368A5
S21440459033B9201D354B9847002860D043682360C8
S2144045A0668B26B9324B9847608300285AD0314BE9
S2144045B098470022A2622065431EA364E36540F646
S2144045C06833A385E3852263A4F860304FF4067011
S2144045D0E0862946284B9847E0860123A4F84C30CD
S2144045E000EB800000FA03F3A4F84E30C4F8847061
S2144045F002212046214B9847002836D102232376B5
S214404600E6B11F4B1B689C4203D1E2681C4B1A6004
S21440461014E01C4A13608BB1DA6894420AD105E074
S214404620D3689C4205D1174B1A601346E268DA609D
S21440463004E01A46002AF3D1124B1A60124B1A684D
S214404640E2601C60114B98470122114B1A702046BD
S214404650104B98470020F8BD6FF00500F8BD6FF08E
S2144046600300F8BD6FF00100F8BDF8BD59254000C5
S2144046706D3A40001144400051454000315F4000D3
S214404680AC484020A84840209C4840207530400018
S21440469098484020D1604000F8B50546214B1C683C
S2144046A0A089214B9847C0F30F30052838D91D4BB9
S2144046B01B6898891C4B9847000B0538800080B2D1
S2144046C070B304F11402002340F2B35740F2B456DC
S2144046D01C46D15C012903D011B3022903D018E04F
S2144046E001339BB21AE0D1184978042918D1191D14
S2144046F0814215DC144494F802E0E17841EA0E2148
S2144047004C1EA4B2BC4288BF3146E98604339BB2F5
S21440471004E01444617819B10B449BB28342D7D36A
S214404720F8BD00BFC4244020A11040002DE9F0474A
S21440473005468946C36898892A4B984710F0010F6A
S21440474011D1B9F1000F4BD0D9F80C102B894A681B
S2144047509A1A254B1B681344B9F808209B1A002B5D
S21440476008DA4C4632E04846204B984700242AE078
S214404770A14603E01B4FDFF880801D4E8889B8476E
S21440478010F0010F08D0D5F80CA0BAF80C40012064
S214404790C0472043AAF80C00D9F800404846B04726
S2144047A0F4B1E1682B894A689B1A0F4A1268134491
S2144047B022899B1A002BDBDA08E0521A91B2298133
S2144047C068680C4B98472C60BDE8F087064B196824
S2144047D0E3685A682B899B1A0B44002BEDDCF2E702
S2144047E00024F0E7A1104000C8244020713B400060
S2144047F04D3B40007D384000951040002DE9F04785
S2144048000446984B1B7813F0100F00F08581B0F8E3
S2144048106050806D626D944B1B68D11A00290FDB87
S2144048209A4204D1914A1268821A002A08DB8F4ABB
S2144048301268904226D18E4A1268D289AA4221D95D
S2144048408B4A1268D1898EB2A4F86010D28991B290
S214404850B4F862708F4238BFA4F862206365834B19
S2144048601B68A36546B994F895305BB984F89430D4
S214404870012384F8953005E094F8953013B1002371
S21440488084F89530794B1A68A36CD11A002937DC26
S2144048900021A4F8641077490988002940F0EF8386
S2144048A02844B4F86050A16D2944884240F0E7831C
S2144048B0A18E11F4004F40F0E2839A4240F0DF832D
S2144048C094F84720531CDBB29A4238BF84F84730EE
S2144048D094F84730032B09D9B4F84C20E38E1344A0
S2144048E09BB29A4207D2A4F84C3004E0032B02D184
S2144048F02046614B9847E36E002B40F0C780E4E0CB
S214404900012900F18880216D511A002900F3838027
S214404910A17F11F0040F06D021F00401A177B4F86E
S2144049204E10A4F84C10002084F84600B4F94050CD
S214404930B4F8421001EBE501A4F84410D31A9BB238
S214404940A4F86430B4F866100B44A4F8663084F8D3
S2144049504700A264237E032B18D9B4F84C20B4F841
S2144049604E30934207D9E38E13449BB29A420DD2FF
S214404970A4F84C300AE0E38E03FB03F393FBF2F318
S21440498013449BB29A4238BFA4F84C30236FFBB90D
S21440499038E0256F2B682367B4F8643053B1EB6872
S2144049A09889B04710F0010F04D0B4F86430013B4A
S2144049B0A4F864306868314B9847B4F86830181AE1
S2144049C0A4F8680028462E4B9847236F23B919E071
S2144049D0DFF8B4802B4E254FDB685868C047054645
S2144049E0236FB3F80890DB689889B04710F003004F
S2144049F018BF012081443B68ED1A4D44002DC8DDA8
S214404A00236F1BB94FF6FF73A38601E00023A386EE
S214404A100023E3776FE70023A4F864306BE7E56E86
S214404A202B68E3660BB9A4F86A30B4F8643053B127
S214404A30EB689889B84710F0010F04D0B4F864309A
S214404A40013BA4F8643068680C4B9847B4F868306B
S214404A50181AA4F868002846094B9847E36ECBB965
S214404A6033E000BFD4244020C8244020D024402037
S214404A70C4244020CC244020B9644000DD384000A7
S214404A804D3B4000A1104000C5104000A24EDFF84C
S214404A90B082A24F3568DB685868C0478246E36EEE
S214404AA0B3F80890DB689889B847CAEB050510F05C
S214404AB0030018BF01208144C9EB0505002D04DB27
S214404AC03368226D9B1A002BA9DDA36B23B3E26BE0
S214404AD091490968521A002A1EDAB4F94010904AE1
S214404AE01268D21AA2EBE10292B213B2114409B292
S214404AF0A4F84010002B01DA524213B2B4F9422017
S214404B00A2EBA20213449BB2A4F8423003EBE103AB
S214404B10A4F844300023A363824B1B88002B00F08C
S214404B209C82227E062A00F29882A16A7E4A1268F9
S214404B308D1A012D2ED4481C801AC31A002B29DC4E
S214404B402B467A4A5068428995420FDD0189491BB7
S214404B5089B200259B1A01814581006842899A42A4
S214404B60F8DB594209B2724B984703E0694209B2F2
S214404B706F4B9847A26A6D496B4805680B892B4472
S214404B809B1A0B81CB6802605A60A16A531A002BAD
S214404B9008DA5DE2531A002B04DAA37F43F00203DF
S214404BA0A37755E2A38DC3F1010313445B1A002B90
S214404BB000F34E828A4240F069815C4B1D89DB6877
S214404BC09889564B984710F0030018BF01202B18C1
S214404BD09BB2544A1380A28D9A4235D2534BDB681F
S214404BE098894E4B984710F0010F0DD04F4BDE681A
S214404BF0B5892846494B984700F03E004D4B9847AC
S214404C0025F47C552843B081484BA28D1A81DB6839
S214404C109889424B984700F0020083B21BB1434A42
S214404C201389013B1381414D29896868424B984757
S214404C302E89EB689889394B984710F0030018BFC7
S214404C4001203044374B1880636F002B00F09B8068
S214404C50364BDB689889314B984710F0010F0BD0E4
S214404C60606F002800F08F80344D03686367A84764
S214404C70606F0028F9D186E0D4F87490B9F1000F3F
S214404C8000F00182D9F80C10264B1B884A689A1A05
S214404C90254B1B681344B9F808209B1A002BC0F21A
S214404CA0F4811E4E214FDFF88C8000E0A9468889AB
S214404CB0B04710F0010F1AD0FB689889B04700F053
S214404CC0020083B29BB9D7F80CA0BAF80C5001206A
S214404CD0C0472843AAF80C003D89FB689889B0472E
S214404CE010F0030018BF012028440E4B1880D9F856
S214404CF000504846114B9847002D00F0C481E968A3
S214404D00084B1B884A689A1A074B1B6813442A8923
S214404D109B1A002BCADAB9E1D0244020A1104000EB
S214404D20A0484020CC244020C8244020DC244020FA
S214404D3059364000951040007D3840004D3B4000BD
S214404D40C5104000854B521A1A81DB689889844BFF
S214404D50984700F0020083B21BB1804A1389013B9A
S214404D6013817E4E318970687E4B98473789F36849
S214404D7098897B4B984710F0030018BF01203844B1
S214404D80794B18806567784B1988784B1A680A44BF
S214404D90A262A38D5B1AA3852046754B98476F4B3E
S214404DA05B681A8922B1734A136000226B4B5A60C3
S214404DB06A4BDB6898896A4B984710F0010F04D01D
S214404DC06D4A137843F020031370656F002D4DD065
S214404DD0EB68A26A5968914248D1DFF89091604FDB
S214404DE0DFF88C81C9F800202E899889B84710F0E2
S214404DF0030018BF01200644A36A1E44A6622E89FB
S214404E00EB689889B84710F0030018BF01200644A5
S214404E10A38D9B1BA3852046C04769680B894BB171
S214404E20544B186810B1554B984701E0514B1960E8
S214404E3000236B60EB689889B84710F0010F09D0E3
S214404E404D4A137843F020031370237E042B01D180
S214404E50072323762B6863672846494B9847656F38
S214404E6025B1EB685A68A16A8A42BBD0A37F13F08B
S214404E70010F06D023F0010343F00203A377BDE8F9
S214404E80F08743F00103A377BDE8F08720463D4B0B
S214404E909847666F5EB1F1684A68344B186882423C
S214404EA00BD0002700F1FF3E00F1010C1EE02B481E
S214404EB0354B98476067BDE8F08735460026274B58
S214404EC01A892B899A4240F2F58024482E4B9847FF
S214404ED00346002800F0EE800EB1306000E06067C8
S214404EE029461846294B9847BDE8F08777B9831A74
S214404EF0002B4DDA1948244B9847002800F0DA80FA
S214404F0060673146214B9847BDE8F087FB685B6891
S214404F10C3EB0E03002B3BDBC2EB0C03002B37DC52
S214404F200E48194B98470446002800F0C380FB689B
S214404F3059680E4B1B683A89D21A0A44002A05DD86
S214404F405B1A99B239817868064B98473C6031467F
S214404F5020460E4B9847BDE8F08700BFDC24402033
S214404F60A11040007D384000CC244020C82440207A
S214404F70CD3A4000D8244020D52440200139400076
S214404F804D3B4000596040008D3B40002D4740005F
S214404F903568002D40F08680821A002A40F38A80C9
S214404FA08889454B984710F0010F40F0838043486E
S214404FB0434B9847306000287CD0F3685968414B93
S214404FC01B683289D21A0A44002A05DD5B1A99B258
S214404FD0318170683C4B98473C4B1A88394B1B686C
S214404FE01A44A18DA36A0B449A4263D93368DB689E
S214404FF09889314B984710F0010F0DD03368DF6821
S214405000BD8928462C4B984700F03E00304B9847C9
S21440501025F47C552843B8813268A16AA38D0B4499
S214405020284909685B1A1381336819895868264BE2
S214405030984733681C89DB6898891F4B984710F05F
S214405040030018BF01202044204B1880BDE8F0879D
S2144050502046204B9847BDE8F0871A4B1B68A26A4B
S214405060991A002905DB01339B1AA28D9B1A002B47
S21440507020DDA37F43F00203A377BDE8F08700233B
S21440508084F8473037E400257CE64D460D4B1968DA
S214405090EB685A680D4B1B889B1A0B44002B3FF756
S2144050A051AE6FE6E9684A68374682423FF407AF3A
S2144050B02E461BE7BDE8F087A1104000DC244020C8
S2144050C08D3B4000C82440207D384000CC24402002
S2144050D095104000596040002DE9F04383B00446E7
S2144050E00D464368197801F00F0103EB8103894AA6
S2144050F0136089004942884B9847002840F0A884AE
S2144051002389132B40F2A4842946844B1868844B89
S2144051109847002840F09C84804B1B6803F0F003BF
S214405120E02B00F095842389009306237B4A7D4933
S21440513020467D4DA847002840F08A84754B1B6862
S21440514098897A4B9847000BC0EB8030810009B2B3
S2144051502046714B9847002840F07A846D4D2F6862
S2144051603888724EB04738802F687888B047788045
S2144051702F687868DFF8E481C04778606C4B186029
S2144051802F68B868C047B8606A4B18602F68F889BF
S214405190B047F8812B689889B0475FFA80FE0EF0DA
S2144051A03F02654B1A701EF0030118BF0121238988
S2144051B0194489B2614B1980614B186840B32F6817
S2144051C03E88584BD3F800C0544BD3F80080054671
S2144051D0002200E01D46AB8BB34211D1B5F81A90C1
S2144051E07B8899450CD16B68634509D12B6843454C
S2144051F006D152B1EB68D360E860514B1D6004E0C5
S214405200EB682A46002BE5D102E0002D40F0F880FE
S2144052104C4B1868002841D03E4B1E683288414BA4
S214405220D3F800C03D4B1F68838B934233D1438BEA
S21440523075889D422FD1456865452CD10568BD428D
S21440524029D11EF0040F22D11EF0020F12D0384D85
S2144052502E68856A751B13D4878DED1B002D0FDCD9
S214405260019200932F4B2D4A314432480068364D08
S214405270A8470CE01EF0010F02D0344B1B68436277
S21440528029B1837F43F002038377314B984720460A
S214405290304B9847FEE3C0680028C5D12E4BD3F864
S2144052A000C0BCF1000F00F0B5831A4B1F68788829
S2144052B01A4B1E686546002200E01D466B8B8342F3
S2144052C004D12B68B34206D02DB123B1EB682A46F1
S2144052D0002BF2D19EE3002D00F09C832AB1EB68B0
S2144052E0D360C5F80CC01C4B1D601EF0040F40F088
S2144052F083801EF0100F33D00D4B18683B88019307
S2144053007B880093074B054A01440A4800680E4DC7
S214405310A84771E0C42440205936400070384020E9
S214405320B52840006838402061244000A110400065
S214405330C8244020D0244020D4244020CC244020E0
S2144053409C484020B048402085634000A04840200C
S214405350D1604000C9364000A4484020C5104000F7
S2144053601EF0020F48D0687E914B984706460028AC
S21440537042D0904B1B6803606B8B43838E4B1B68FD
S21440538043608E4B1A6813888383032303768C4BC3
S2144053901B68591C81620163D189A0F86010D289CC
S2144053A0A0F86220A0F84E10013B43652B690361CC
S2144053B06B6943612B7A23F073030372814B1A683F
S2144053C0C2601860804B98470122804B1A70304666
S2144053D07F4B9847311DF08E7E4B9847F0861221C2
S2144053E030467D4B984720B1002130467B4B98474E
S2144053F002E030467A4B984720467A4B984749E336
S214405400794B00221A60218919815C60DF60774BF6
S2144054101A60774B1A701EF0080F03D0637B43F078
S21440542001036373AB6F6BB12846724B984710F11C
S2144054300A0F00F0E082AB6F23B16F4B1B88002B46
S21440544040F0D9826D4B1D606D4B1B7813F0040FF6
S21440545023D02B7E022B07D12B6D6A4A12689342CB
S21440546014BF002301230BE0554B1B68AA6A9B1A06
S21440547000F14482AA8D9B1A002BCCBF0023012347
S214405480002B00F03B825A4A137843F0080313700F
S214405490AB7F23F00103AB7730E213F0020F09D065
S2144054A02B7E023BDBB2012B04D9AB7F43F00203D9
S2144054B0AB7723E2AB7F13F0100F40F0CD82524B18
S2144054C01B686B62C8E24E4B1B7803F01203122B2C
S2144054D056D12B6FDB6858684C4B98470130494B88
S2144054E01B6898424CD1B5F866300133A5F8663053
S2144054F0334B1B685A1CAA622A63A8642F4A126858
S214405500D189A5F86010D289A5F86220013B6B6569
S21440551004232B76E918E88E2E4B9847E88600EB56
S21440552080035B00A5F84E30B5F84C30012B01D116
S214405530400080B2A5F84C00B5F86830013BA5F8AD
S2144055406830286F03682B67314B98472B6F1BB921
S2144055504FF6FF73AB8603E00023AB8685F84630F4
S214405560D5F884303BB1002229462869984710F187
S2144055700A0F00F04082AB7F43F00203AB77BDE1F9
S2144055801F4B1B7813F0100F00F0B8810B4B1B68B5
S214405590194A10880A4A11681A8801925B88009353
S2144055A0054B044A0144174800681A4CA047A5E139
S2144055B0294440007038402068384020C4244020A9
S2144055C0C82440209C4840207530400098484020E1
S2144055D09946400051454000315F400061434000DD
S2144055E0D1604000C9364000DC244020D82440200A
S2144055F0D524402041424000CC244020B44840209E
S214405600D4244020D0244020A0484020C51040004C
S2144056104D3B400085634000934B1B7813F0100FC2
S21440562049D0924B1868AB6CDB43C34233D42B6DE6
S214405630C31A002B2FDC04232B766B6943B1002260
S21440564029462869984738B110F10A0F00F0D381EF
S2144056502846874B9847CEE1B5F84C402846854BC0
S2144056609847B5F8643013B1013BA5F86430012C77
S214405670EB8E04BF5B009BB2A5F84C307E4B1B788C
S21440568013F0200F00F03A81AB7F43F00203AB7774
S21440569007232B7632E1794B1B68794A1488794A7E
S2144056A011681A8801925B880093774B774A2144A9
S2144056B0774CA04722E113F0020F00F01F81AB6A3F
S2144056C0013B704A1268934240F018812846714B5D
S2144056D0984713E12846674B9847674B1B7813F06B
S2144056E0200F00F00B81AB7F43F00203AB7707231C
S2144056F02B7603E128465F4B98475F4B1B7813F0A9
S214405700200F41D0584B1B7813F0100F35D02A6D20
S214405710564B1B689A4230D1AB7F43F00203AB77BF
S21440572028465D4B98475D4B1B68AB4203D1EA6801
S2144057305A4B1A6015E05A4A1360002201200AE0CC
S214405740D968A94205D10AB1554A1360EA68DA60B9
S21440575007E002460B46002BF2D112B10022504B16
S2144057601A6001224F4B1A700A232B764E4B1A684A
S214405770EA601D604D4B9847C0E0AB7F43F00203A4
S214405780AB7708232B76B9E0374B1B7813F0100F16
S21440579000F0B4802A6D354B1B689A4240F0AE80CC
S2144057A006232B76AAE02846324B9847324B1B7886
S2144057B013F0200F00F0A280AB7F43F00203AB77DC
S2144057C02846354B9847354B1B68AB4203D1EA68B1
S2144057D0324B1A6015E0324A1360002201200AE07C
S2144057E0D968A94205D10AB12D4A1360EA68DA6041
S2144057F007E002460B46002BF2D112B10022284B9E
S2144058001A600122274B1A700A232B76264B1A68F9
S214405810EA601D60254B984770E02846154B984730
S214405820114B1B7813F0100F68D02A6D0F4B1B6876
S2144058309A4263D12846184B9847184B1B68AB4290
S21440584003D1EA68154B1A603AE0154A1360002205
S21440585001202FE0D968A9422AD10AB1104A136024
S214405860EA68DA602CE000BFD4244020D0244020F0
S21440587001444000FD474000D5244020C424402039
S214405880CC244020C824402068384020703840202F
S214405890856340005D644000D53B40009C48402006
S2144058A0A848402098484020B048402075304000E6
S2144058B002460B46002BCDD112B10022774B1A6020
